:1000000048C06CC06BC06AC069C068C067C066C0C9
:1000100065C064C063C062C061C060C0CAC25EC067
:100020005DC05CC0DAC55AC00000000000000000DE
:1000300000030400000000000000000000000000B9
:1000400000000000010204081020408001020408A2
:1000500010204080800102040810200102040840A2
:100060000404040404040404020202020202020260
:1000700003030303030303010101010300002E0036
:10008000250028002B0000002D00240027002A0056
:10009000180611241FBECFEFD2E0DEBFCDBF11E0A6
:1000A000A0E0B1E0EEE4FFE002C005900D92AE33B7
:1000B000B107D9F722E0AEE3B1E001C01D92AD3740
:1000C000B207E1F710E0C9E4D0E003C02197FE01D8
:1000D000B8D6C834D107D1F711D637C791CF77FD3D
:1000E0001DC057FD1BC067307105C1F04730510579
:1000F000A9F024E0660F771F2A95E1F7FC01E60FCF
:10010000F71F440F551FE40FF51F81E090E0208199
:1001100031812130310521F080E0089580E090E0C8
:1001200008952F923F924F925F926F927F928F929B
:100130009F92AF92BF92CF92DF92EF92FF920F9376
:100140001F93CF93DF931C016B013A01EB012197C1
:100150002B0182E0480E511CE12CF12C5A0181E068
:10016000A81AB1084A0182E0880E911CC415D50571
:10017000A9F085010815190579F0CC15DD0519F4EC
:100180000615170531F0A801BE01C101A8DFE80E70
:10019000F91E0F5F1F4FEECF2196E8CFC701DF9109
:1001A000CF911F910F91FF90EF90DF90CF90BF9074
:1001B000AF909F908F907F906F905F904F903F9007
:1001C0002F900895EF92FF920F931F93CF93DF9399
:1001D0007C018B01EA01A5DFAC0184E0000F111F57
:1001E0008A95E1F70E0D1F1DCC0FDD1FC00FD11F2B
:1001F00088819981019749F44250510981E090E04A
:100200004230510548F080E007C021E090E04330E3
:10021000510509F020E0822FDF91CF911F910F91BE
:10022000FF90EF900895CF92DF92EF92FF920F939D
:100230001F93CF93DF930EE311E0C0E0D0E024E6FC
:1002400030E040E050E060E070E0CB0136D56B017B
:100250007C0165E071E087E492E011D32AE030E0B0
:10026000B701A60187E492E06FD3F801EC0FFD1F00
:1002700081E090E023E3C216D104E104F10414F418
:1002800080E090E0918380832296C031D105B9F659
:10029000005F1F4F81E00E3B180779F6DF91CF9189
:1002A0001F910F91FF90EF90DF90CF900895EF9204
:1002B000FF921F93CF93DF9380E0E3D1D5D4CEE1BB
:1002C000D1E08EE0E82E81E0F82E8881229661E070
:1002D0000ED2F7011081F2E0EF0EF11C61E0812FE8
:1002E00006D261E0812F41D260E0812F3ED281E0D1
:1002F000CE32D80751F760E081E0F9D140E855E20D
:1003000060E070E087E492E0F4D3DF91CF911F9139
:10031000FF90EF9088CF4F925F926F927F928F9273
:100320009F92AF92BF92CF92DF92EF92FF920F9384
:100330001F93CF93DF93CDB7DEB7C058D1090FB667
:10034000F894DEBF0FBECDBF3C01CE0101967C010B
:100350005C01C12CD12C00E010E0A801B601C30162
:1003600031DFF801EE0FFF1FEA0DFB1D9183808343
:100370000F5F1F4F0830110581F79FEFC91AD90A87
:1003800040E1A40EB11C68E0C616D10421F72EE3AB
:1003900031E080E090E0F901E80FF91FD701A80FE4
:1003A000B91F4D915C91608171816417750719F4D3
:1003B0006FEF461A560A51834083452B19F44FEFCD
:1003C000841A940A02968031910529F7205F3F4FE5
:1003D00060E1E60EF11C81E02E3B3807D1F690E497
:1003E0008916910421F040E444165104C1F4C05828
:1003F000DF4F0FB6F894DEBF0FBECDBFDF91CF91B8
:100400001F910F91FF90EF90DF90CF90BF90AF9032
:100410009F908F907F906F905F904F9004CFC058C7
:10042000DF4F0FB6F894DEBF0FBECDBFDF91CF9187
:100430001F910F91FF90EF90DF90CF90BF90AF9002
:100440009F908F907F906F905F904F9008958EE374
:1004500091E061CF8F929F92AF92BF92CF92DF9245
:10046000EF92FF920F931F93CF93DF9324EFA22E6F
:10047000BB24B394CEE1D1E08EEBC82E81E0D82E20
:100480009EE0E92E91E0F92E00E010E0F601E00F89
:10049000F11F80819181019791F4888061E0882D1E
:1004A00064D1F701908060E0892D5FD18AE090E00F
:1004B000CAD060E0882D59D161E0892D56D160E025
:1004C000888153D1F7018081F2E0EF0EF11C61E0E9
:1004D0004CD10E5F1F4F00311105C1F6229680E10D
:1004E000C80ED11C91E0CE32D90751F6E1E0AE1A28
:1004F000B10809F0BFCFDF91CF911F910F91FF900D
:10050000EF90DF90CF90BF90AF909F908F90089525
:100510002EEB31E080E090E0F901E80FF91F118245
:100520001082029680319105B9F7205F3F4F82E03B
:100530002E33380779F720E030E080E090E0AC011E
:10054000420F531FFA01E254FE4FDA01A25CBE4F84
:100550004D915C915183408302968031910579F7EA
:10056000205F3F4F2038310541F70895CF93DF9347
:10057000C4E6D0E06CDFCCDF6DDF2197D9F7DF91E7
:10058000CF9151CEE1E8F0E08081887F8083A0E8C0
:10059000B0E08C9181608C938C918D7F8C93808165
:1005A000877F808380818F7E80838081836080834A
:1005B00008951F920F920FB60F9211242F933F931D
:1005C0008F939F93AF93BF9380913F02909140028E
:1005D000A0914102B091420230913E0226E0230FE9
:1005E0002D3730F029E8230F0396A11DB11D03C05C
:1005F0000296A11DB11D20933E0280933F0290936D
:100600004002A0934102B093420280914302909134
:100610004402A0914502B09146020196A11DB11D70
:100620008093430290934402A0934502B093460204
:10063000BF91AF919F918F913F912F910F900FBEDE
:100640000F901F9018958330910528F0880F991FFF
:1006500004970197F1F7089585B5887F836085BD7C
:100660007894EEE6F0E08081816080838BDFEAE7BA
:10067000F0E08081887786688083808180688083CD
:1006800008958F7090910401292F217030E096E039
:10069000220F331F9A95E1F7282B20937C0080913D
:1006A0007A00806480937A0080917A0086FDFCCF86
:1006B000809178002091790090E0922B089583300A
:1006C00049F4809180008F77809380008091800032
:1006D0008F7B0AC0843051F4809180008F7D80939D
:1006E0008000809180008F7E809380000895CF935A
:1006F000DF9387FD8FEF90E0FC01EC5BFF4F2491CF
:10070000FC01E05AFF4F8491882361F190E0880F4B
:10071000991FFC01EA57FF4FC591D491FC01E458A1
:10072000FF4FA591B491611109C09FB7F8948881DA
:10073000209582238883EC912E230BC0623061F4D4
:100740009FB7F8943881822F809583238883EC911A
:100750002E2B2C939FBF06C08FB7F894E8812E2BC9
:1007600028838FBFDF91CF9108950F931F93CF936D
:10077000DF931F92CDB7DEB787FD8FEF282F30E0D4
:10078000F901E85DFF4F8491F901EC5BFF4F149193
:10079000F901E05AFF4F04910023D9F0882319F0A2
:1007A00069838DDF6981E02FF0E0EE0FFF1FE458D1
:1007B000FF4FA591B4918FB7611106C0F8949C9139
:1007C000E12FE095E92303C0F894EC91E12BEC9341
:1007D0008FBF0F90DF91CF911F910F910895CF920E
:1007E000DF92EF92FF920F931F93CF93DF936C01F1
:1007F000EB017B01E40EF51E00E010E0CE15DF05F5
:1008000061F06991D601ED91FC910190F081E02DAC
:10081000C6010995080F191FF1CFC801DF91CF91CB
:100820001F910F91FF90EF90DF90CF900895FB0103
:1008300001900020E9F73197AF01461B570BDC010F
:10084000ED91FC910280F381E02D0994DC01ED91A2
:10085000FC910190F081E02D09940F931F93CF93A9
:10086000DF93EC016DE0F2DF8C016AE0CE01EEDF98
:10087000800F911FDF91CF911F910F9108950F93DA
:100880001F93CF93DF93EC01D2DF8C01CE01E5DF24
:10089000800F911FDF91CF911F910F9108958F923B
:1008A0009F92AF92BF92CF92DF92EF92FF920F93FF
:1008B0001F93CF93DF93CDB7DEB7A1970FB6F89410
:1008C000DEBF0FBECDBF6C01142FE52FCB01022F71
:1008D00019A2223008F40AE07E0121E2E20EF11CA6
:1008E000802E912CA12CB12C612F7E2FA50194017B
:1008F00016D2802F622F0AD2181B81E0E81AF10865
:100900001A3014F4105D01C0195CF7011083122F26
:10091000E32FCA01232B242B252B31F7B701C60166
:1009200086DFA1960FB6F894DEBF0FBECDBFDF9174
:10093000CF911F910F91FF90EF90DF90CF90BF90DC
:10094000AF909F908F900895CF92DF92EF92FF9299
:100950000F931F93CF93DF93EC016A017B01211565
:10096000310579F4E881F9810190F081E02D642F5F
:10097000DF91CF911F910F91FF90EF90DF90CF907B
:1009800009942A30310501F577FF0CC06DE25EDF76
:100990008C01F094E094D094C094C11CD11CE11C53
:1009A000F11C02C000E010E02AE0B701A601CE0170
:1009B00076DF800F911FDF91CF911F910F91FF90F4
:1009C000EF90DF90CF900895DF91CF911F910F911D
:1009D000FF90EF90DF90CF9062CFDC011F96ED91FA
:1009E000FC91509780A191A122A133A1821B930B6E
:1009F0008F7199270895DC011F96ED91FC91509716
:100A000082A193A120A131A12817390729F0E80F6D
:100A1000F91F808190E008958FEF9FEF0895DC012A
:100A20001F96ED91FC91509722A133A180A191A135
:100A30008217930761F0DF01A20FB31F8C912F5F24
:100A40003F4F2F71332733A322A390E008958FEFF8
:100A50009FEF08952FB7F894FC01458556853AE03D
:100A60006095089420F47BB175237BB904C07BB1F9
:100A7000742B7BB9000021D020D01FD01ED06695EA
:100A80003A9581F72FBF81E090E008950895409155
:100A9000530220E038E011D010D00FD00ED00DD08E
:100AA000889479B1742309F0089427953A9509F050
:100AB000F3CF03D002D0822F089580915802982F4F
:100AC0009A95F1F70895FC0190B7906190BF90B7A7
:100AD000977F90BF90B79F7B90BF90B7906890BF73
:100AE000118A0784F089E02D82A193A191A380A3AC
:100AF00008950F931F93CF93DF9300D000D0CDB70D
:100B0000DEB78C019A01AB0160E072E18AE790E008
:100B100028D1CA01B90167527109810991092CE0F4
:100B200030E040E050E01DD1DA01C9010197A10990
:100B3000B1098F3F9105A105B10538F0C80129839E
:100B40003A834B835C83BFDF2981F801218B80B717
:100B5000877F80BF80B7806480BF80B78F7780BF7A
:100B600080B78B7F80BF80B7826080BF80B7816095
:100B700080BF9AB18485809589238AB99BB1848589
:100B8000892B8BB99AB18585892B8AB99BB18585CB
:100B9000892B8BB980B7806180BF80B7886080BFA8
:100BA0000F900F900F900F90DF91CF911F910F91A9
:100BB0000895FB0140A151A19A012F5F3F4F2F7172
:100BC000332762A173A12617370731F0DF01A40F85
:100BD000B51F8C9331A320A308951F920F920FB6D7
:100BE0000F9211242F933F934F935F936F937F93B3
:100BF0008F939F93AF93BF93EF93FF9348DF6091E1
:100C0000560270915702D5DF80B7806180BFFF9197
:100C1000EF91BF91AF919F918F917F916F915F9174
:100C20004F913F912F910F900FBE0F901F901895ED
:100C3000E7E4F2E01382128288EE93E0A0E0B0E0F5
:100C400084839583A683B78382E391E09183808335
:100C500089E592E0908B878780E8848780E48587A8
:100C60008FEB8687118A0895009721F0BC0180E000
:100C700090E062C10895CF93DF9300D000D0CDB74C
:100C8000DEB7611571058105910569F09B01AC0125
:100C900069833A834B835C834BD129813A814B81B1
:100CA0005C815FD003C060E070E0CB010F900F90DB
:100CB0000F900F90DF91CF910895CF92DF92EF9236
:100CC000FF920F931F9362177307840795077CF4B5
:100CD00089019A016B017C01C901B8016C197D0978
:100CE0008E099F09C8DF6C0D7D1D8E1D9F1D1F91F4
:100CF0000F91FF90EF90DF90CF9008958091660064
:100D000080936600A9DCD3DA31DCFECF002480FDBD
:100D1000060E660F11F08695D1F7802D0895A1E299
:100D20001A2EAA1BBB1BFD010DC0AA1FBB1FEE1F65
:100D3000FF1FA217B307E407F50720F0A21BB30BB0
:100D4000E40BF50B661F771F881F991F1A9469F72C
:100D500060957095809590959B01AC01BD01CF0188
:100D60000895052E97FB16F400940FD057FD05D07B
:100D7000D6DF07FC02D046F408C050954095309568
:100D800021953F4F4F4F5F4F0895909580957095F7
:100D900061957F4F8F4F9F4F089568940013E8949B
:100DA000A0E0B0E0E5EDF6E01DC0EFEFE7F9590196
:100DB0006A015E23550FEE08FE2C87019B01AC01F2
:100DC0009E23990F660B762FCB0141D0CDB7DEB7AE
:100DD000EAE024C02F923F924F925F926F927F92EF
:100DE0008F929F92AF92BF92CF92DF92EF92FF923B
:100DF0000F931F93CF93DF93CDB7DEB7CA1BDB0BE7
:100E00000FB6F894DEBF0FBECDBF09942A8839888B
:100E100048885F846E847D848C849B84AA84B98492
:100E2000C884DF80EE80FD800C811B81AA81B9819E
:100E3000CE0FD11D0FB6F894DEBF0FBECDBFED01B2
:100E40000895EE0FFF1F0590F491E02D0994DF93B4
:100E5000CF939F92A0E49A2E0024D001E001F001EC
:100E600016950795F794E794D794C794B794A794E9
:100E700048F41068A20FB31FC41FD51FE61FF71F49
:100E8000081E191E220F331F441F551F661F771F90
:100E9000881F991F9A9421F79D01AE01BF01C001DF
:100EA00011249F90CF91DF910895A0E0B0E0EAE592
:100EB000F7E096CFEC01688179818A819B81611589
:100EC00071058105910521F464E279ED8BE597E0E8
:100ED0002DE133EF41E050E044DF49015A0127EAB8
:100EE00031E440E050E059DF69017A01C501B40105
:100EF0002CEE34EF4FEF5FEF50DF022F132F9A01EC
:100F0000D701C601800F911FA21FB31FB7FF03C0F7
:100F10000197A109B04888839983AA83BB83BC0148
:100F2000CD019F77CDB7DEB7ECE076CFBEDF089579
:100F300080E091E0BADF08956093000170930101B1
:0E0F400080930201909303010895F894FFCF6F
:100F4E00010000000172616E646F6D3A20000000B6
:100F5E00010002000300040005000600070008005F
:100F6E0009000A000B000C000D000E000F0000001F
:0E0F7E0000002A05EF03ED040F05FB044605F5
:00000001FF
